:100000000C942A000C94B71A0C94E21A0C940D1B51
:100010000C9447000C9447000C9447000C94470044
:100020000C9447000C9447000C9447000C942D1B33
:100030000C9447000C9447000C9447000C94470024
:100040000C9447000C9447000C9447000C94470014
:100050000C94470011241FBECFE5D8E0DEBFCDBF12
:1000600011E0A0E6B0E0EEECF8E302C005900D92DE
:10007000AA36B107D9F711E0AAE6B1E001C01D9296
:10008000A337B107E1F70E94771B0C94651C0C9411
:100090000000EF92FF920F931F937B018C0120E0F1
:1000A00030E040E05FE40E94F50388238CF0C80153
:1000B000B70120E030E040E05FE40E94C1010E940F
:1000C000B3049B01AC01205030404040504806C072
:1000D000C801B7010E94B3049B01AC01B901CA0178
:1000E0001F910F91FF90EF900895A0E0B0E0EBE733
:1000F000F0E00C94B21BDC012B01FA019C919230D0
:1001000008F439C1EB018881823008F433C194309E
:1001100069F4843009F02FC111969C91119789815F
:10012000981709F428C1A0E6B0E025C1843009F48D
:1001300021C18230A9F4923009F01DC19A01AD01AC
:1001400088E0EA010990AE01E90109929E0181501F
:10015000C1F7E201898111969C918923818308C1AD
:10016000923009F407C112962D903C901397EB0141
:100170008A819B811496AD90BD90CD90DC901797AD
:10018000EC80FD800E811F819101281B390BB90184
:1001900037FF04C066277727621B730B6032710537
:1001A0000CF061C0121613066CF537014801062EDB
:1001B00004C096948794779467940A94D2F721E0C8
:1001C00030E040E050E004C0220F331F441F551FB1
:1001D0006A95D2F721503040404050402E213F21B7
:1001E00040235123211531054105510521F021E01E
:1001F00030E040E050E079018A01E628F72808293C
:1002000019293CC0232BD1F1260E371E350146019A
:10021000062E04C096948794779467940A94D2F734
:1002200021E030E040E050E004C0220F331F441FC3
:10023000551F6A95D2F721503040404050402A2146
:100240003B214C215D21211531054105510521F04E
:1002500021E030E040E050E059016A01A628B728CB
:10026000C828D9280BC0821593052CF01C01AA249C
:10027000BB24650103C0EE24FF24870111969C91E5
:10028000D20111968C91981709F445C0992339F041
:10029000A80197012A193B094C095D0906C0A6016E
:1002A00095012E193F09400B510B57FD08C01182D3
:1002B0003382228224833583468357831DC081E0A5
:1002C00081833382228288279927DC01821B930B4A
:1002D000A40BB50B84839583A683B7830DC0220F2F
:1002E000331F441F551F24833583468357838281E0
:1002F000938101979383828324813581468157813D
:10030000DA01C9010197A109B1098F5F9F4FAF4F72
:10031000BF4328F30BC0918333822282EA0CFB1C7B
:100320000C1D1D1DE482F5820683178383E0808304
:10033000248135814681578157FF1AC0C901AA27F8
:1003400097FDA095BA2F81709070A070B0705695EF
:10035000479537952795822B932BA42BB52B848318
:100360009583A683B7838281938101969383828349
:10037000DF0101C0D201CD01CDB7DEB7E2E10C94BF
:10038000CE1BA0E2B0E0E7ECF1E00C94BE1B698369
:100390007A838B839C832D833E834F835887E9E048
:1003A000EE2EF12CEC0EFD1ECE010196B7010E943F
:1003B000A4068E010F5E1F4FCE010596B8010E9464
:1003C000A4068A8991E089278A8BC701B801AE010A
:1003D000475E5F4F0E9475000E94CF05A096E6E041
:1003E0000C94DA1BA0E2B0E0E8EFF1E00C94BE1B45
:1003F00069837A838B839C832D833E834F835887C5
:10040000F9E0EF2EF12CEC0EFD1ECE010196B701A6
:100410000E94A4068E010F5E1F4FCE010596B80103
:100420000E94A406C701B801AE01475E5F4F0E945B
:1004300075000E94CF05A096E6E00C94DA1BA0E2BE
:10044000B0E0E5E2F2E00C94B21B69837A838B831F
:100450009C832D833E834F835887CE010196BE0136
:10046000675F7F4F0E94A406CE010596BE016F5EB6
:100470007F4F0E94A4069985923088F08989823046
:10048000C8F0943019F4823051F404C0843029F457
:10049000923081F480E690E0C6C0923049F420E0CA
:1004A0009A858A89981321E02A87CE010996BBC0D4
:1004B000823049F420E09A858A89981321E02A8BBA
:1004C000CE014196B0C02D843E844F8458886D88FB
:1004D0007E888F88988CEE24FF248701AA24BB2471
:1004E000650140E050E060E070E0E0E0F0E0C10174
:1004F00081709070892BE9F0E60CF71C081D191D1E
:100500009A01AB012A0D3B1D4C1D5D1D80E090E062
:10051000A0E0B0E0E614F7040805190520F481E036
:1005200090E0A0E0B0E0BA01A901480F591F6A1F8E
:100530007B1FAA0CBB1CCC1CDD1C97FE08C081E0F5
:1005400090E0A0E0B0E0A82AB92ACA2ADB2A3196B6
:10055000E032F10549F0660C771C881C991C569412
:10056000479437942794C3CFFA85EA892B893C892D
:100570008B859C85280F391F2E5F3F4F17C0CA01FE
:1005800081709070892B61F016950795F794E79428
:1005900080E090E0A0E0B0E8E82AF92A0A2B1B2BC3
:1005A00076956795579547952F5F3F4F77FDE7CF36
:1005B0000CC0440F551F661F771F17FD4160EE0CDE
:1005C000FF1C001F111F21503040403090E05907A0
:1005D00090E0690790E4790760F32B8F3C8FDB0193
:1005E000CA018F779070A070B07080349105A1051A
:1005F000B10561F447FD0AC0E114F10401051105DC
:1006000029F0405C5F4F6F4F7F4F40781A8EFE1786
:1006100011F081E08A8F4D8F5E8F6F8F78A383E01A
:10062000898FCE0149960E94CF05A096E2E10C94F5
:10063000CE1BA8E1B0E0EFE1F3E00C94BA1B6983B4
:100640007A838B839C832D833E834F835887B9E0C5
:10065000EB2EF12CEC0EFD1ECE010196B7010E948F
:10066000A4068E010F5E1F4FCE010596B8010E94B1
:10067000A4062985223008F47EC03989323010F46E
:10068000B8017CC08A859A8989278A87243011F02D
:10069000223031F4231709F06EC060E670E06EC0BE
:1006A000343039F41D861E861F86188A1C861B86E8
:1006B00004C0323021F484E08987B7015FC02B8504
:1006C0003C858B899C89281B390B3C872B87ED84C3
:1006D000FE840F851889AD88BE88CF88D88CEA142F
:1006E000FB040C051D0540F4EE0CFF1C001F111F40
:1006F000215030403C872B8720E030E040E050E044
:1007000080E090E0A0E0B0E460E070E0EA14FB0478
:100710000C051D0540F0282B392B4A2B5B2BEA18C2
:10072000FB080C091D09B695A79597958795EE0CC2
:10073000FF1C001F111F6F5F7F4F6F31710531F775
:10074000DA01C9018F779070A070B0708034910584
:10075000A105B10561F427FD0AC0E114F10401050A
:10076000110529F0205C3F4F4F4F5F4F20782D87B8
:100770003E874F87588BBE01675F7F4FCB010E943A
:10078000CF056896EAE00C94D61BA8E1B0E0EBEC4C
:10079000F3E00C94BE1B69837A838B839C832D8347
:1007A0003E834F83588789E0E82EF12CEC0EFD1E26
:1007B000CE010196B7010E94A4068E010F5E1F4F65
:1007C000CE010596B8010E94A4068985823040F0CA
:1007D0008989823028F0C701B8010E941C0701C036
:1007E0008FEF6896E6E00C94DA1BA8E1B0E0EBEF3F
:1007F000F3E00C94BE1B69837A838B839C832D83E7
:100800003E834F83588789E0E82EF12CEC0EFD1EC5
:10081000CE010196B7010E94A4068E010F5E1F4F04
:10082000CE010596B8010E94A4068985823040F069
:100830008989823028F0C701B8010E941C0701C0D5
:100840008FEF6896E6E00C94DA1BA8E1B0E0EBE2EB
:10085000F4E00C94BE1B69837A838B839C832D8385
:100860003E834F83588789E0E82EF12CEC0EFD1E65
:10087000CE010196B7010E94A4068E010F5E1F4FA4
:10088000CE010596B8010E94A4068985823040F009
:100890008989823028F0C701B8010E941C0701C075
:1008A00081E06896E6E00C94DA1BA8E0B0E0EBE5A6
:1008B000F4E00C94BB1B9B01AC0183E08983DA015B
:1008C000C9018827B7FD83959927AA27BB27B82E8A
:1008D000211531054105510519F482E089833AC09B
:1008E0008823A9F0203080E0380780E0480780E8BE
:1008F000580729F460E070E080E09FEC30C0EE24FF
:10090000FF248701E21AF30A040B150B02C07901D8
:100910008A018EE1C82ED12CDC82CB82ED82FE8250
:100920000F831887C801B7010E9480050197181628
:10093000190684F4082E04C0EE0CFF1C001F111FC2
:100940000A94D2F7ED82FE820F831887C81AD90A5B
:10095000DC82CB82BA82CE0101960E94CF05289616
:10096000E9E00C94D71BACE0B0E0E9EBF4E00C94C8
:10097000C21B69837A838B839C83CE010196BE015F
:100980006B5F7F4F0E94A4068D81823061F18230BF
:1009900050F1843021F48E81882351F12EC02F81B3
:1009A000388537FD20C06E812F3131051CF066235C
:1009B000F9F023C08EE190E0821B930B29853A85E4
:1009C0004B855C8504C056954795379527958A9544
:1009D000D2F76623B1F050954095309521953F4F61
:1009E0004F4F5F4F0EC020E030E040E050E009C0C4
:1009F0002FEF3FEF4FEF5FE704C020E030E040E033
:100A000050E8B901CA012C96E2E00C94DE1BA8E084
:100A1000B0E0EDE0F5E00C94BA1B7B018C016115B0
:100A200071058105910519F482E0898360C083E036
:100A300089838EE1C82ED12CDC82CB82ED82FE82AE
:100A40000F831887C801B7010E948005FC01319708
:100A5000F7FF3BC0222733272E1B3F0B57016801AE
:100A6000022E04C0D694C794B794A7940A94D2F7E0
:100A700040E050E060E070E081E090E0A0E0B0E0B5
:100A800004C0880F991FAA1FBB1F2A95D2F7019790
:100A9000A109B1098E219F21A023B1230097A105AF
:100AA000B10521F041E050E060E070E04A295B29A7
:100AB0006C297D294D835E836F8378878EE190E07A
:100AC0008E1B9F0B9C838B8312C0309781F00E2E60
:100AD00004C0EE0CFF1C001F111F0A94D2F7ED8218
:100AE000FE820F831887CE1ADF0ADC82CB821A823D
:100AF000CE0101960E94CF052896EAE00C94D61B01
:100B0000EF92FF920F931F937B018C0180E0E81618
:100B100080E0F80681E0080780E0180788F48FEF8E
:100B2000E816F1040105110531F028F088E090E0A5
:100B3000A0E0B0E017C080E090E0A0E0B0E012C01C
:100B400080E0E81680E0F80680E0080781E01807FA
:100B500028F088E190E0A0E0B0E004C080E190E0FF
:100B6000A0E0B0E020E230E040E050E0281B390B8C
:100B70004A0B5B0B04C016950795F794E7948A958A
:100B8000D2F7F701E859FF4F8081281B310941094D
:100B90005109C9011F910F91FF90EF900895DF92C5
:100BA000EF92FF920F931F93FC01E480F580068182
:100BB0001781D1808081823048F480E090E0A0E10C
:100BC000B0E0E82AF92A0A2B1B2BA5C0843009F4CF
:100BD0009FC0823021F4EE24FF24870105C0E11478
:100BE000F1040105110519F4E0E0F0E096C062811E
:100BF00073819FEF623879070CF05BC022E83FEF0A
:100C0000261B370B2A3131052CF020E030E040E084
:100C100050E02AC0B801A701022E04C0769567955E
:100C2000579547950A94D2F781E090E0A0E0B0E0B4
:100C300004C0880F991FAA1FBB1F2A95D2F70197DE
:100C4000A109B1098E219F21A023B1230097A105FD
:100C5000B10521F081E090E0A0E0B0E09A01AB01A5
:100C6000282B392B4A2B5B2BDA01C9018F77907027
:100C7000A070B07080349105A105B10539F427FF4B
:100C800009C0205C3F4F4F4F5F4F04C0215C3F4F76
:100C90004F4F5F4FE0E0F0E02030A0E03A07A0E0E7
:100CA0004A07A0E45A0710F0E1E0F0E079018A0178
:100CB00027C06038710564F5FB01E158FF4FD8018A
:100CC000C7018F779070A070B07080349105A10536
:100CD000B10539F4E7FE0DC080E490E0A0E0B0E09B
:100CE00004C08FE390E0A0E0B0E0E80EF91E0A1F18
:100CF0001B1F17FF05C016950795F794E7943196CB
:100D000087E016950795F794E7948A95D1F705C083
:100D1000EE24FF248701EFEFF0E06E2F6795662742
:100D20006795902F9F77D794DD24D7948E2F869543
:100D3000492F462B582F5D29B701CA011F910F91EA
:100D4000FF90EF90DF900895FC01DB01408151811D
:100D50002281622F6F7770E0221F2227221F93814A
:100D6000892F880F822B282F30E0991F9927991FF0
:100D700011969C93119721153105A9F5411551053F
:100D80006105710511F482E037C082E89FEF139688
:100D90009C938E9312979A01AB0167E0220F331F49
:100DA000441F551F6A95D1F783E08C930DC0220F25
:100DB000331F441F551F12968D919C9113970197D5
:100DC00013969C938E931297203080E0380780E032
:100DD000480780E4580758F314962D933D934D939C
:100DE0005C93179708952F3F310579F4411551050C
:100DF0006105710519F484E08C93089564FF03C0C4
:100E000081E08C9312C01C9210C02F573040139673
:100E10003C932E93129783E08C9387E0440F551FE9
:100E2000661F771F8A95D1F7706414964D935D9372
:100E30006D937C93179708951F93DC01FB019C91A0
:100E4000923008F447C08081823008F443C0943067
:100E500051F411961C91843099F58181682F70E0CE
:100E6000611B71093FC0843021F0923031F482302F
:100E7000B9F18181882389F12DC011961C911197B8
:100E80008230F1F081811817D9F412962D913C919E
:100E90001397828193818217930794F0281739075B
:100EA000BCF014968D919D910D90BC91A02D248144
:100EB000358146815781281739074A075B0718F49F
:100EC000112341F00AC082179307A407B50740F425
:100ED000112319F061E070E005C06FEF7FEF02C0F1
:100EE00060E070E0CB011F910895DF93CF9300D0B5
:100EF00000D0CDB7DEB789838981282F30E03C83CD
:100F00002B838B819C818130910521F12B813C8148
:100F1000223031052CF48B819C81009761F047C011
:100F20002B813C812230310521F18B819C818330E2
:100F3000910571F13CC0A3E5B0E0E3E5F0E080810C
:100F4000877F8C93A3E5B0E0E3E5F0E080818F7BC1
:100F50008C9330C0A3E5B0E0E3E5F0E080818860E9
:100F60008C93A3E5B0E0E3E5F0E080818F7B8C9388
:100F700021C0A3E5B0E0E3E5F0E0808188608C93D8
:100F8000A3E5B0E0E3E5F0E0808180648C9312C0DB
:100F9000A3E5B0E0E3E5F0E08081877F8C93A3E5F3
:100FA000B0E0E3E5F0E0808180648C9303C091E0E1
:100FB0009A8304C0E2E5F0E010821A828A810F90E1
:100FC0000F900F900F90CF91DF910895DF93CF9303
:100FD00000D000D0CDB7DEB789838981282F30E0DB
:100FE0003C832B838B819C818330910509F449C01C
:100FF0002B813C81243031055CF48B819C818130D4
:10100000910599F02B813C812230310521F17BC083
:101010008B819C818430910509F449C02B813C81EE
:101020002530310509F459C06EC0A3E5B0E0E3E511
:10103000F0E0808181608C93A3E5B0E0E3E5F0E02F
:1010400080818D7F8C93A3E5B0E0E3E5F0E08081C3
:101050008B7F8C935BC0A3E5B0E0E3E5F0E080819B
:101060008E7F8C93A3E5B0E0E3E5F0E080818260C1
:101070008C93A3E5B0E0E3E5F0E080818B7F8C9377
:1010800045C0A3E5B0E0E3E5F0E0808181608C93AA
:10109000A3E5B0E0E3E5F0E0808182608C93A3E516
:1010A000B0E0E3E5F0E080818B7F8C932FC0A3E577
:1010B000B0E0E3E5F0E080818E7F8C93A3E5B0E0C3
:1010C000E3E5F0E080818D7F8C93A3E5B0E0E3E57C
:1010D000F0E0808184608C9319C0A3E5B0E0E3E583
:1010E000F0E0808181608C93A3E5B0E0E3E5F0E07F
:1010F00080818D7F8C93A3E5B0E0E3E5F0E0808113
:1011000084608C9303C031E03A8301C01A828A81E3
:101110000F900F900F900F90CF91DF910895DF9374
:10112000CF930F92CDB7DEB78983E2E5F0E08981F6
:10113000808380E00F90CF91DF910895DF93CF936C
:10114000CDB7DEB7A3E5B0E0E3E5F0E080818E7FC8
:101150008C93A3E5B0E0E3E5F0E080818D7F8C9394
:10116000A3E5B0E0E3E5F0E080818B7F8C9380E045
:10117000CF91DF910895DF93CF9300D000D0CDB70A
:10118000DEB789838981282F30E03C832B838B81D4
:101190009C818630910531F02B813C8127303105CF
:1011A000B9F02CC0A3E5B0E0E3E5F0E080818E7FEC
:1011B0008C93A3E5B0E0E3E5F0E0808182608C935E
:1011C000A3E5B0E0E3E5F0E0808184608C9319C092
:1011D000A3E5B0E0E3E5F0E0808181608C93A3E5D6
:1011E000B0E0E3E5F0E0808182608C93A3E5B0E0BD
:1011F000E3E5F0E0808184608C9303C031E03A83C2
:1012000001C01A828A810F900F900F900F90CF919A
:10121000DF910895DF93CF9300D000D0CDB7DEB734
:1012200089838981282F30E03C832B838B819C81AB
:10123000009731F02B813C812130310591F023C0A2
:10124000E8E5F0E08081882F90E081709070009751
:10125000B9F3A8E5B0E0E8E5F0E0808181608C9327
:1012600015C0E8E5F0E080818695882F90E08170D8
:1012700090700097B1F3A8E5B0E0E8E5F0E0808178
:1012800082608C9303C031E03A8301C01A828A8164
:101290000F900F900F900F90CF91DF910895DF93F3
:1012A000CF9300D0CDB7DEB79A838983E2E5F0E033
:1012B0008081E981FA81808380E00F900F90CF9147
:1012C000DF910895DF93CF9300D000D0CDB7DEB784
:1012D00089838981282F30E03C832B838B819C81FB
:1012E000009731F02B813C812130310549F010C04D
:1012F000A9E5B0E0E9E5F0E0808181608C930BC066
:10130000A9E5B0E0E9E5F0E0808182608C9303C05C
:1013100031E03A8301C01A828A810F900F900F90BA
:101320000F90CF91DF910895DF93CF9300D00F926C
:10133000CDB7DEB78A836B8319828A810E94E60764
:1013400006C080E00E940A0989818F5F89839981A4
:101350008B819817B0F30E949E0880E00F900F9049
:101360000F90CF91DF910895DF93CF93CDB7DEB784
:10137000E0E2F0E082E08083E1E2F0E01082E2E28D
:10138000F0E082E08083E6E5F0E084E08083CF91C6
:10139000DF910895DF93CF93CDB7DEB7E6E5F0E0B8
:1013A00084EA8083E6E5F0E080818823DCF7CF9152
:1013B000DF910895DF93CF93CDB7DEB7E6E5F0E098
:1013C00084E98083CF91DF910895DF93CF930F92CB
:1013D000CDB7DEB78983E3E2F0E089818083E6E57B
:1013E000F0E084E88083E6E5F0E080818823DCF7A4
:1013F0000F90CF91DF910895DF93CF93CDB7DEB7F4
:10140000E6E5F0E084EC8083E6E5F0E08081882387
:10141000DCF7E3E2F0E08081CF91DF910895DF9384
:10142000CF93CDB7DEB7E6E5F0E084E88083E6E56C
:10143000F0E080818823DCF7E3E2F0E08081CF9167
:10144000DF910895DF93CF930F92CDB7DEB7E1E23E
:10145000F0E08081887F898389810F90CF91DF912F
:101460000895DF93CF930F92CDB7DEB7898389813B
:10147000813041F4AFE5B0E0EFE5F0E080818068D5
:101480008C9307C0AFE5B0E0EFE5F0E080818F77A7
:101490008C9380E00F90CF91DF910895DF93CF93ED
:1014A00000D000D00F92CDB7DEB789836A8381E088
:1014B0000E94310A8981282F30E03D832C838C8162
:1014C0009D818130910509F472C02C813D812230CB
:1014D000310509F4D3C08C819D81009709F0F5C0D6
:1014E0008A818823B1F4A5E5B0E0E5E5F0E08081EC
:1014F0008E7F8C93A5E5B0E0E5E5F0E080818D7FFF
:101500008C93ABE5B0E0EBE5F0E0808180648C93F8
:10151000DFC08A818130B1F4A5E5B0E0E5E5F0E017
:10152000808181608C93A5E5B0E0E5E5F0E0808105
:101530008D7F8C93ABE5B0E0EBE5F0E080818064DB
:101540008C93C6C08A818230B1F4A5E5B0E0E5E5B0
:10155000F0E080818E7F8C93A5E5B0E0E5E5F0E0DA
:10156000808182608C93ABE5B0E0EBE5F0E08081B8
:1015700080648C93ADC08A818330B1F4A5E5B0E07E
:10158000E5E5F0E0808181608C93A5E5B0E0E5E5DC
:10159000F0E0808182608C93ABE5B0E0EBE5F0E0B9
:1015A000808180648C9394C091E09B8392C08A81F7
:1015B0008823B1F4A5E5B0E0E5E5F0E080818B7F1C
:1015C0008C93A5E5B0E0E5E5F0E08081877F8C9322
:1015D000ABE5B0E0EBE5F0E0808180688C9378C00B
:1015E0008A818130B1F4A5E5B0E0E5E5F0E08081E5
:1015F00084608C93A5E5B0E0E5E5F0E08081877F2D
:101600008C93ABE5B0E0EBE5F0E0808180688C93F3
:101610005FC08A818230B1F4A5E5B0E0E5E5F0E095
:1016200080818B7F8C93A5E5B0E0E5E5F0E08081DB
:1016300088608C93ABE5B0E0EBE5F0E080818068FA
:101640008C9346C08A818330B1F4A5E5B0E0E5E52E
:10165000F0E0808184608C93A5E5B0E0E5E5F0E002
:10166000808188608C93ABE5B0E0EBE5F0E08081B1
:1016700080688C932DC021E02B832BC08A8182301F
:1016800079F4A4E5B0E0E4E5F0E080818F7B8C9311
:10169000ABE5B0E0EBE5F0E0808180628C9318C0B0
:1016A0008A81833079F4A4E5B0E0E4E5F0E080815C
:1016B00080648C93ABE5B0E0EBE5F0E08081806284
:1016C0008C9306C031E03B8304C081E08B8301C072
:1016D0001B828B810F900F900F900F900F90CF91E6
:1016E000DF910895DF93CF9300D000D0CDB7DEB760
:1016F00089838981282F30E03C832B838B819C81D7
:1017000081309105F1F02B813C812230310531F19E
:101710008B819C810097B1F5EAE5F0E080818295AC
:10172000869586958370882F90E0817090700097E1
:1017300099F3AAE5B0E0EAE5F0E0808180648C935B
:1017400024C0EAE5F0E080818823DCF7AAE5B0E078
:10175000EAE5F0E0808180688C9317C0EAE5F0E06C
:101760008081829586958770882F90E08170907037
:101770000097A1F3AAE5B0E0EAE5F0E0808180629D
:101780008C9303C091E09A8301C01A828A810F90E2
:101790000F900F900F90CF91DF910895DF93CF932B
:1017A00000D000D0CDB7DEB789838981282F30E003
:1017B0003C832B838B819C818130910589F02B8127
:1017C0003C8122303105A1F08B819C810097C1F4CE
:1017D000ABE5B0E0EBE5F0E0808180648C9313C072
:1017E000ABE5B0E0EBE5F0E0808180688C930BC066
:1017F000ABE5B0E0EBE5F0E0808180628C9303C064
:1018000091E09A8301C01A828A810F900F900F9005
:101810000F90CF91DF910895DF93CF9300D000D048
:10182000CDB7DEB789838981282F30E03C832B83B5
:101830008B819C818130910589F02B813C81223004
:101840003105A1F08B819C810097C1F4ABE5B0E03C
:10185000EBE5F0E080818F7B8C9313C0ABE5B0E0CB
:10186000EBE5F0E080818F778C930BC0ABE5B0E0C7
:10187000EBE5F0E080818F7D8C9303C091E09A834B
:1018800001C01A828A810F900F900F900F90CF9114
:10189000DF910895DF93CF9300D000D0CDB7DEB7AE
:1018A00089836A838981282F30E03C832B838B8155
:1018B0009C8181309105D1F02B813C812230310512
:1018C0002CF48B819C81009761F01EC02B813C81A0
:1018D0002230310581F08B819C818330910581F02C
:1018E00013C0EAE3F0E08A8180830EC0E7E3F0E012
:1018F0008A81808309C0E4E3F0E08A81808304C0A8
:10190000E1E3F0E08A8180830F900F900F900F90B9
:10191000CF91DF910895DF93CF9300D000D0CDB762
:10192000DEB789836A838981282F30E03C832B834B
:101930008B819C8181309105D1F02B813C812230BB
:1019400031052CF48B819C81009761F01EC02B81A6
:101950003C812230310581F08B819C81833091055F
:1019600081F013C0EBE3F0E08A8180830EC0E8E3EE
:10197000F0E08A81808309C0E5E3F0E08A8180831A
:1019800004C0E2E3F0E08A8180830F900F900F9013
:101990000F90CF91DF910895DF93CF9300D000D0C7
:1019A000CDB7DEB78A8319828A81282F30E03C8345
:1019B0002B838B819C8181309105D1F02B813C81DF
:1019C000223031052CF48B819C81009761F01EC080
:1019D0002B813C812230310581F08B819C818330C9
:1019E000910581F013C0E9E3F0E0808189830EC0A6
:1019F000E6E3F0E08081898309C0E3E3F0E08081E1
:101A0000898304C0E0E3F0E08081898389810F90BD
:101A10000F900F900F90CF91DF910895DF93CF93A8
:101A2000CDB7DEB727970FB6F894DEBF0FBECDBF98
:101A300089836A834B838B81813009F06FC08981F0
:101A4000282F30E03F832E838E819F818130910546
:101A500049F12E813F81223031052CF48E819F8106
:101A6000009761F0D2C02E813F812230310571F1A3
:101A70008E819F8183309105E9F1C7C0AAE3B0E070
:101A8000EAE3F0E08081482F8A81282F30E081E06E
:101A900090E0022E02C0880F991F0A94E2F7842B6F
:101AA0008C93B3C0A7E3B0E0E7E3F0E08081482F78
:101AB0008A81282F30E081E090E0022E02C0880F5A
:101AC000991F0A94E2F7842B8C939FC0A4E3B0E0A3
:101AD000E4E3F0E08081482F8A81282F30E081E024
:101AE00090E0022E02C0880F991F0A94E2F7842B1F
:101AF0008C938BC0A1E3B0E0E1E3F0E08081482F5C
:101B00008A81282F30E081E090E0022E02C0880F09
:101B1000991F0A94E2F7842B8C9377C08B818823DA
:101B200009F073C08981282F30E03D832C838C819C
:101B30009D818130910559F12C813D812230310503
:101B40002CF48C819D81009769F05FC02C813D81D0
:101B50002230310589F18C819D818330910509F412
:101B600040C053C0AAE3B0E0EAE3F0E08081482F30
:101B70008A81282F30E081E090E0022E02C0880F99
:101B8000991F0A94E2F7809584238C933EC0A7E3C3
:101B9000B0E0E7E3F0E08081482F8A81282F30E031
:101BA00081E090E0022E02C0880F991F0A94E2F7AC
:101BB000809584238C9329C0A4E3B0E0E4E3F0E0B3
:101BC0008081482F8A81282F30E081E090E0022E2A
:101BD00002C0880F991F0A94E2F7809584238C93A2
:101BE00014C0A1E3B0E0E1E3F0E08081482F8A81F6
:101BF000282F30E081E090E0022E02C0880F991F6C
:101C00000A94E2F7809584238C9327960FB6F89474
:101C1000DEBF0FBECDBFCF91DF910895DF93CF938D
:101C2000CDB7DEB727970FB6F894DEBF0FBECDBF96
:101C300089836A834B838B81813009F06FC08981EE
:101C4000282F30E03F832E838E819F818130910544
:101C500049F12E813F81223031052CF48E819F8104
:101C6000009761F0D2C02E813F812230310571F1A1
:101C70008E819F8183309105E9F1C7C0ABE3B0E06D
:101C8000EBE3F0E08081482F8A81282F30E081E06B
:101C900090E0022E02C0880F991F0A94E2F7842B6D
:101CA0008C93B3C0A8E3B0E0E8E3F0E08081482F74
:101CB0008A81282F30E081E090E0022E02C0880F58
:101CC000991F0A94E2F7842B8C939FC0A5E3B0E0A0
:101CD000E5E3F0E08081482F8A81282F30E081E021
:101CE00090E0022E02C0880F991F0A94E2F7842B1D
:101CF0008C938BC0A2E3B0E0E2E3F0E08081482F58
:101D00008A81282F30E081E090E0022E02C0880F07
:101D1000991F0A94E2F7842B8C9377C08B818823D8
:101D200009F073C08981282F30E03D832C838C819A
:101D30009D818130910559F12C813D812230310501
:101D40002CF48C819D81009769F05FC02C813D81CE
:101D50002230310589F18C819D818330910509F410
:101D600040C053C0ABE3B0E0EBE3F0E08081482F2C
:101D70008A81282F30E081E090E0022E02C0880F97
:101D8000991F0A94E2F7809584238C933EC0A8E3C0
:101D9000B0E0E8E3F0E08081482F8A81282F30E02E
:101DA00081E090E0022E02C0880F991F0A94E2F7AA
:101DB000809584238C9329C0A5E3B0E0E5E3F0E0AF
:101DC0008081482F8A81282F30E081E090E0022E28
:101DD00002C0880F991F0A94E2F7809584238C93A0
:101DE00014C0A2E3B0E0E2E3F0E08081482F8A81F2
:101DF000282F30E081E090E0022E02C0880F991F6A
:101E00000A94E2F7809584238C9327960FB6F89472
:101E1000DEBF0FBECDBFCF91DF910895DF93CF938B
:101E200000D000D00F92CDB7DEB78A836B831982C2
:101E30008A81282F30E03D832C834C815D814130A5
:101E4000510541F18C819D818230910534F42C81C2
:101E50003D812115310561F052C04C815D814230D8
:101E6000510551F18C819D8183309105B9F147C0B5
:101E7000E9E3F0E08081282F30E08B81882F90E02B
:101E8000A90102C0559547958A95E2F7CA0181706C
:101E9000898335C0E6E3F0E08081282F30E08B8134
:101EA000882F90E0A90102C0559547958A95E2F7E1
:101EB000CA018170898323C0E3E3F0E08081282F89
:101EC00030E08B81882F90E0A90102C0559547959D
:101ED0008A95E2F7CA018170898311C0E0E3F0E0DE
:101EE0008081282F30E08B81882F90E0A90102C0EB
:101EF000559547958A95E2F7CA0181708983898152
:101F00000F900F900F900F900F90CF91DF91089549
:101F1000DF93CF930F92CDB7DEB78983898160E0DD
:101F20000E944A0C89816FEF0E948B0C0F90CF9119
:101F3000DF910895DF93CF9300D0CDB7DEB78983CB
:101F40006A8389816A8140E00E940E0D89816A81DD
:101F500041E00E940E0E0F900F90CF91DF910895F7
:101F6000DF93CF930F92CDB7DEB78983ABE3B0E0B9
:101F7000EBE3F0E08081982F9F708981807F892B2F
:101F80008C930F90CF91DF910895DF93CF930F92B1
:101F9000CDB7DEB78983ABE3B0E0EBE3F0E080815F
:101FA000282F2F708981882F90E082959295907FBD
:101FB0009827807F9827822B8C930F90CF91DF9169
:101FC0000895DF93CF9300D000D00F92CDB7DEB746
:101FD00089836A834B83A6E2B0E0E6E2F0E0808189
:101FE00080688C938981813041F4A7E2B0E0E7E218
:101FF000F0E0808180628C930AC08981882339F463
:10200000A7E2B0E0E7E2F0E080818F7D8C938A81E7
:10201000882379F4A7E2B0E0E7E2F0E080818F77EF
:102020008C93A7E2B0E0E7E2F0E080818F7B8C93B5
:1020300011C08981813071F4A7E2B0E0E7E2F0E0FD
:10204000808180688C93A7E2B0E0E7E2F0E08081D5
:1020500080648C938B81282F30E03D832C838C818E
:102060009D818031910509F46BC02C813D81213126
:1020700031058CF48C819D8184309105A9F12C81EE
:102080003D812830310509F445C08C819D81823025
:102090009105A1F0ACC02C813D812034310509F4BB
:1020A0007BC08C819D818038910509F48BC02C8187
:1020B0003D812032310509F459C099C0A6E2B0E053
:1020C000E6E2F0E080818E7F8C93A6E2B0E0E6E26B
:1020D000F0E080818D7F8C93A6E2B0E0E6E2F0E054
:1020E00080818B7F8C9383C0A6E2B0E0E6E2F0E0D3
:1020F00080818E7F8C93A6E2B0E0E6E2F0E0808102
:1021000082608C93A6E2B0E0E6E2F0E080818B7F13
:102110008C936DC0A6E2B0E0E6E2F0E080818160E1
:102120008C93A6E2B0E0E6E2F0E0808182608C93DE
:10213000A6E2B0E0E6E2F0E080818B7F8C9357C0AE
:10214000A6E2B0E0E6E2F0E080818E7F8C93A6E22A
:10215000B0E0E6E2F0E080818D7F8C93A6E2B0E013
:10216000E6E2F0E0808184608C9341C0A6E2B0E0BA
:10217000E6E2F0E0808181608C93A6E2B0E0E6E2E6
:10218000F0E080818D7F8C93A6E2B0E0E6E2F0E0A3
:10219000808184608C932BC0A6E2B0E0E6E2F0E0A0
:1021A00080818E7F8C93A6E2B0E0E6E2F0E0808151
:1021B00082608C93A6E2B0E0E6E2F0E08081846089
:1021C0008C9315C0A6E2B0E0E6E2F0E08081816089
:1021D0008C93A6E2B0E0E6E2F0E0808182608C932E
:1021E000A6E2B0E0E6E2F0E0808184608C930F909C
:1021F0000F900F900F900F90CF91DF910895DF9384
:10220000CF9300D00F92CDB7DEB78B838B818770D1
:102210008B83A7E2B0E0E7E2F0E08081807E8C93E0
:10222000A7E2B0E0E7E2F0E090818B81892B8C930C
:102230001A821982E4E2F0E08081282F30E089815F
:102240009A81822B932B9A838983E5E2F0E0808147
:10225000882F90E0982F88279C0189819A81822B72
:10226000932B9A838983A6E2B0E0E6E2F0E08081D6
:1022700080648C93E6E2F0E0808182958F70882FF5
:1022800090E0817090700097A9F3A6E2B0E0E6E2DA
:10229000F0E0808180618C9389819A810F900F900A
:1022A0000F90CF91DF910895DF93CF9300D0CDB7FA
:1022B000DEB789836A8380E061E040E40E94E10F39
:1022C0000F900F90CF91DF910895DF93CF9300D0BF
:1022D00000D00F92CDB7DEB78D8380E090E0A0E014
:1022E000B0E089839A83AB83BC838D810E94FF1009
:1022F000CC01A0E0B0E0BC01CD010E940705DC01EB
:10230000CB0189839A83AB83BC8369817A818B817A
:102310009C8120E030E040EA50E40E941F02DC0192
:10232000CB01BC01CD0120E030E040E854E40E9444
:102330001903DC01CB01BC01CD0120E030E048EC09
:1023400052E40E941F02DC01CB0189839A83AB8394
:10235000BC8369817A818B819C810E944900DC0168
:10236000CB010F900F900F900F900F90CF91DF91B6
:102370000895DF93CF9300D0CDB7DEB789836A830A
:1023800089816A8141E00E940E0D0F900F90CF91DC
:10239000DF910895DF93CF9300D0CDB7DEB7898367
:1023A0006A8389816A8141E00E940E0E0F900F902E
:1023B000CF91DF910895DF93CF9300D0CDB7DEB7F3
:1023C00089836A8389816A8140E00E940E0E0F90A2
:1023D0000F90CF91DF910895DF93CF9300D0CDB7C9
:1023E000DEB789836A8389816A810E940E0F8130FA
:1023F00029F489816A810E94DB110AC089816A817E
:102400000E940E0F882321F489816A810E94CA11DB
:102410000F900F90CF91DF910895DF93CF93CDB7B9
:10242000DEB782E062E041E00E940E0DCF91DF91C5
:102430000895DF93CF93CDB7DEB782E062E041E04D
:102440000E940E0ECF91DF910895DF93CF93CDB709
:10245000DEB782E062E040E00E940E0ECF91DF9195
:102460000895DF93CF93CDB7DEB782E063E041E01C
:102470000E940E0DCF91DF910895DF93CF93CDB7DA
:10248000DEB782E063E041E00E940E0ECF91DF9163
:102490000895DF93CF93CDB7DEB782E063E040E0ED
:1024A0000E940E0ECF91DF910895DF93CF93CDB7A9
:1024B000DEB782E064E041E00E940E0DCF91DF9133
:1024C0000895DF93CF93CDB7DEB782E064E041E0BB
:1024D0000E940E0ECF91DF910895DF93CF93CDB779
:1024E000DEB782E064E040E00E940E0ECF91DF9103
:1024F0000895DF93CF93CDB7DEB72E970FB6F8943C
:10250000DEBF0FBECDBF82E064E041E00E940E0E50
:1025100080E090E0AAE7B4E48B879C87AD87BE8714
:102520006B857C858D859E8520E030E04AE753E40D
:102530000E941F02DC01CB018F839887A987BA878D
:102540006F81788589859A8520E030E040E85FE3F7
:102550000E94250488232CF481E090E09E838D83E3
:102560003FC06F81788589859A8520E03FEF4FE7EE
:1025700057E40E94C50318164CF56B857C858D8544
:102580009E8520E030E040E251E40E941F02DC0121
:10259000CB01BC01CD010E944900DC01CB019E832F
:1025A0008D830FC089E190E09C838B838B819C811C
:1025B0000197F1F79C838B838D819E8101979E8388
:1025C0008D838D819E81009769F714C06F81788516
:1025D00089859A850E944900DC01CB019E838D8309
:1025E0008D819E819A83898389819A810197F1F7F0
:1025F0009A83898382E064E040E00E940E0E2E966A
:102600000FB6F894DEBF0FBECDBFCF91DF91089516
:10261000DF93CF930F92CDB7DEB782E062E00E94E6
:102620000E0F813019F481E089830AC082E063E0F3
:102630000E940E0F813019F482E0898301C0198253
:1026400089810F90CF91DF910895DF93CF9300D0D0
:10265000CDB7DEB789836A830E9439138A81882FB8
:1026600090E069810E9442130F900F90CF91DF910B
:102670000895DF93CF93CDB7DEB70E94B409CF9111
:10268000DF910895DF93CF9300D00F92CDB7DEB7DF
:102690009A8389836B830E94CA0989819A81807099
:1026A0009770880F892F881F990B9195806A0E94D7
:1026B000E50989810E94E5098B810E94E5090E9454
:1026C000DA090F900F900F90CF91DF910895DF936B
:1026D000CF9300D000D0CDB7DEB79A8389837C83B7
:1026E0006B830E94CA0989819A8180709770880FD4
:1026F000892F881F990B9195806A0E94E50989812D
:102700000E94E5090E94CA0989819A8180709770A8
:10271000880F892F881F990B9195816A0E94E5097E
:102720000E940F0AEB81FC8180830E94DA090F90DE
:102730000F900F900F90CF91DF910895DF93CF937B
:1027400000D00F92CDB7DEB789836A834B838B812C
:10275000882359F489816A8140E00E940E0D8981A5
:102760006A8141E00E940E0E08C08B81813029F4FD
:1027700089816A8140E00E940E0D0F900F900F90AA
:10278000CF91DF910895DF93CF9300D0CDB7DEB71F
:1027900089836A8389816A810E940E0F0F900F904E
:1027A000CF91DF910895DF93CF930F92CDB7DEB72E
:1027B00089838981813059F481E063E041E00E949E
:1027C0000E0D81E063E041E00E940E0E0DC0898194
:1027D000882351F481E061E041E00E940E0D81E028
:1027E00061E041E00E940E0E0F90CF91DF910895BD
:1027F000DF93CF930F92CDB7DEB789838981813084
:1028000059F481E063E041E00E940E0D81E063E055
:1028100040E00E940E0E0DC08981882351F481E0B2
:1028200061E041E00E940E0D81E061E040E00E9425
:102830000E0E0F90CF91DF910895DF93CF9300D0CC
:10284000CDB7DEB789836A838A818130A9F4898113
:1028500064E041E00E940E0D898165E041E00E9444
:102860000E0D898166E041E00E940E0D898167E0CE
:1028700041E00E940E0D17C08A818823A1F489814E
:1028800060E041E00E940E0D898161E041E00E941C
:102890000E0D898162E041E00E940E0D898163E0A6
:1028A00041E00E940E0D0F900F90CF91DF9108959F
:1028B000DF93CF93CDB7DEB727970FB6F894DEBF7F
:1028C0000FBECDBF89836A834B838A81813009F033
:1028D0006BC08981282F30E03F832E838E819F81BA
:1028E0008130910541F12E813F81223031052CF458
:1028F0008E819F81009761F0A1C02E813F8122309F
:10290000310561F18E819F8183309105D1F196C0AF
:10291000ABE3B0E0EBE3F0E08081282F2F708B81F8
:10292000882F90E082959295907F9827807F9827B6
:10293000822B8C9383C0A8E3B0E0E8E3F0E08081D1
:10294000282F2F708B81882F90E082959295907F11
:102950009827807F9827822B8C9370C0A5E3B0E0E6
:10296000E5E3F0E08081282F2F708B81882F90E0A5
:1029700082959295907F9827807F9827822B8C93C1
:102980005DC0A2E3B0E0E2E3F0E08081282F2F7089
:102990008B81882F90E082959295907F9827807FF9
:1029A0009827822B8C934AC08A81882309F046C0DD
:1029B0008981282F30E03D832C838C819D8181305B
:1029C0009105F9F02C813D81223031052CF48C8168
:1029D0009D81009761F032C02C813D81223031050C
:1029E000D1F08C819D8183309105F9F027C0EBE314
:1029F000F0E08981982F907F8B818F70892B808365
:102A00001DC0E8E3F0E08981982F907F8B818F7063
:102A1000892B808313C0E5E3F0E08981982F907FB4
:102A20008B818F70892B808309C0E2E3F0E089817C
:102A3000982F907F8B818F70892B808327960FB67C
:102A4000F894DEBF0FBECDBFCF91DF910895DF9325
:102A5000CF9300D00F92CDB7DEB78A836B831982F4
:102A60008B81813029F48A8182958F70898306C099
:102A70008B81882319F48A818F70898389810F90D3
:102A80000F900F90CF91DF910895DF93CF93CDB743
:102A9000DEB7A2970FB6F894DEBF0FBECDBF88A3F6
:102AA00069A34AA38AA1843608F010C18AA19AE0DA
:102AB000692F0E94841B8F8F8AA19AE0692F0E9440
:102AC000841B892F8E8F1D8EFDC081E00E94F8131C
:102AD00080E00E94D31388A169A14E8D0E945814F2
:102AE00080E090E0A0EAB0E4898F9A8FAB8FBC8F32
:102AF000698D7A8D8B8D9C8D20E030E04AE753E420
:102B00000E941F02DC01CB018D8B9E8BAF8BB88F97
:102B10006D897E898F89988D20E030E040E85FE301
:102B20000E94250488232CF481E090E09C8B8B8B01
:102B30003FC06D897E898F89988D20E03FEF4FE7F8
:102B400057E40E94C50318164CF5698D7A8D8B8D5C
:102B50009C8D20E030E040E251E40E941F02DC0145
:102B6000CB01BC01CD010E944900DC01CB019C8B53
:102B70008B8B0FC089E190E09A8B898B89899A8928
:102B80000197F1F79A8B898B8B899C8901979C8B94
:102B90008B8B8B899C89009769F714C06D897E891E
:102BA0008F89988D0E944900DC01CB019C8B8B8B17
:102BB0008B899C89988B8F878F8598890197F1F7EE
:102BC000988B8F8780E00E94F81381E00E94D313D6
:102BD00088A169A14F8D0E94581480E090E0A0EA7E
:102BE000B0E48B879C87AD87BE876B857C858D85A0
:102BF0009E8520E030E04AE753E40E941F02DC019A
:102C0000CB018F839887A987BA876F81788589855B
:102C10009A8520E030E040E85FE30E9425048823A5
:102C20002CF481E090E09E838D833FC06F81788596
:102C300089859A8520E03FEF4FE757E40E94C5035E
:102C400018164CF56B857C858D859E8520E030E0DF
:102C500040E251E40E941F02DC01CB01BC01CD0126
:102C60000E944900DC01CB019E838D830FC089E166
:102C700090E09C838B838B819C810197F1F79C83EF
:102C80008B838D819E8101979E838D838D819E8113
:102C9000009769F714C06F81788589859A850E94AD
:102CA0004900DC01CB019E838D838D819E819A83B7
:102CB000898389819A810197F1F79A8389838D8D20
:102CC0008F5F8D8F8D8D8B3008F4FFCEA2960FB65F
:102CD000F894DEBF0FBECDBFCF91DF910895DF9393
:102CE000CF93CDB7DEB7A5970FB6F894DEBF0FBE72
:102CF000CDBF88A369A32AA33BA34CA35DA38AA14C
:102D00009BA1ACA1BDA184369105A105B10508F038
:102D100021C18AA19BA1ACA1BDA12AE030E040E085
:102D200050E0BC01CD010E94901BDA01C9018F8FD8
:102D30008AA19BA1ACA1BDA12AE030E040E050E017
:102D4000BC01CD010E94901BDC01CB018E8F1D8E3A
:102D5000FDC081E00E94F81380E00E94D31388A197
:102D600069A14E8D0E94581480E090E0A0EAB0E482
:102D7000898F9A8FAB8FBC8F698D7A8D8B8D9C8D4F
:102D800020E030E04AE753E40E941F02DC01CB015F
:102D90008D8B9E8BAF8BB88F6D897E898F89988D37
:102DA00020E030E040E85FE30E94250488232CF413
:102DB00081E090E09C8B8B8B3FC06D897E898F89F1
:102DC000988D20E03FEF4FE757E40E94C5031816A7
:102DD0004CF5698D7A8D8B8D9C8D20E030E040E242
:102DE00051E40E941F02DC01CB01BC01CD010E9415
:102DF0004900DC01CB019C8B8B8B0FC089E190E0FB
:102E00009A8B898B89899A890197F1F79A8B898B9B
:102E10008B899C8901979C8B8B8B8B899C890097D4
:102E200069F714C06D897E898F89988D0E94490049
:102E3000DC01CB019C8B8B8B8B899C89988B8F873A
:102E40008F8598890197F1F7988B8F8780E00E9492
:102E5000F81381E00E94D31388A169A14F8D0E94CD
:102E6000581480E090E0A0EAB0E48B879C87AD879F
:102E7000BE876B857C858D859E8520E030E04AE7A6
:102E800053E40E941F02DC01CB018F839887A9873E
:102E9000BA876F81788589859A8520E030E040E89F
:102EA0005FE30E94250488232CF481E090E09E8358
:102EB0008D833FC06F81788589859A8520E03FEFBB
:102EC0004FE757E40E94C50318164CF56B857C85C7
:102ED0008D859E8520E030E040E251E40E941F0293
:102EE000DC01CB01BC01CD010E944900DC01CB011A
:102EF0009E838D830FC089E190E09C838B838B81BF
:102F00009C810197F1F79C838B838D819E81019732
:102F10009E838D838D819E81009769F714C06F8198
:102F2000788589859A850E944900DC01CB019E83C2
:102F30008D838D819E819A83898389819A8101976E
:102F4000F1F79A8389838D8D8F5F8D8F8D8D8B3077
:102F500008F4FFCEA5960FB6F894DEBF0FBECDBF26
:102F6000CF91DF910895DF93CF93CDB7DEB7289748
:102F70000FB6F894DEBF0FBECDBF8B836C832D835D
:102F80003E834F8358878D819E81AF81B88584367B
:102F90009105A105B105A8F58D819E81AF81B88508
:102FA0002AE030E040E050E0BC01CD010E94901BDF
:102FB000DA01C9018A838D819E81AF81B8852AE0BB
:102FC00030E040E050E0BC01CD010E94901BDC01EC
:102FD000CB01898380E00E94D31381E00E94D31348
:102FE0008C81813031F481E061E049810E94581484
:102FF00008C08C81882329F480E060E04A810E9427
:10300000581428960FB6F894DEBF0FBECDBFCF91EF
:10301000DF910895DF93CF93CDB7DEB72E970FB62C
:10302000F894DEBF0FBECDBF80E062E00E944E0A82
:1030300081E062E00E944E0A82E062E00E944E0A55
:1030400080E00E94750780E00E94620983E062E0F0
:1030500040E00E949E1383E063E040E00E949E13E4
:1030600081E062E040E00E949E1380E060E00E9408
:103070001D1481E061E00E941D140E94391320910B
:10308000680181E193E0622F0E94421380E090E0AA
:10309000A0E2B1E48B879C87AD87BE876B857C857A
:1030A0008D859E8520E030E04AE753E40E941F02B0
:1030B000DC01CB018F839887A987BA876F817885D8
:1030C00089859A8520E030E040E85FE30E9425048E
:1030D00088232CF481E090E09E838D833FC06F8134
:1030E000788589859A8520E03FEF4FE757E40E9475
:1030F000C50318164CF56B857C858D859E8520E073
:1031000030E040E251E40E941F02DC01CB01BC012F
:10311000CD010E944900DC01CB019E838D830FC04D
:1031200089E190E09C838B838B819C810197F1F7EF
:103130009C838B838D819E8101979E838D838D815E
:103140009E81009769F714C06F81788589859A857B
:103150000E944900DC01CB019E838D838D819E817D
:103160009A83898389819A810197F1F79A83898368
:103170000E940D120E9431120E94551280E067E0F9
:103180000E9454112E960FB6F894DEBF0FBECDBF2D
:10319000CF91DF910895DF93CF9300D0CDB7DEB705
:1031A00080916A01282F30E03A83298389819A81AE
:1031B0008130910561F029813A812230310551F049
:1031C00089819A81009749F40E94F018E9CF0E9402
:1031D0000B19E6CF0E94511AE3CF10926A01E0CF9B
:1031E000DF93CF93CDB7DEB780E00E940C0C81E077
:1031F0000E940C0C10926B010E9425120E94491231
:103200000E946D1280E00E94F81381E00E94F81382
:10321000CF91DF910895DF93CF9300D000D00F922C
:10322000CDB7DEB71D8280E00E94CE0B81E00E9408
:10323000CE0B80916B01882349F49E012B5F3F4F99
:1032400081E193E0B9010E94671303C08091680196
:103250008D8381E080936B0180E090E0A0E0B0E09E
:1032600089839A83AB83BC830E94C919DC01CB019B
:1032700089839A83AB83BC8389819A81AB81BC812A
:10328000BC01CD010E94E91BDC01CB01BC01CD01D9
:103290000E9449009B01AC0180E060E00E94B317EE
:1032A00089819A81AB81BC81BC01CD010E94E91B5F
:1032B000DC01CB01BC01CD010E9449009B01AC01A6
:1032C00081E061E00E94B3178D81882F90E0AA27EA
:1032D00097FDA095BA2FBC01CD010E9455049B011A
:1032E000AC0169817A818B819C810E94C101DC01E2
:1032F000CB01BC01CD0120E030E040EA50E40E9467
:10330000C50318162CF40E9425120E943D122CC0F1
:103310008D81882F90E0AA2797FDA095BA2FBC0138
:10332000CD010E945504DC01CB01BC01CD012981F6
:103330003A814B815C810E94C101DC01CB01BC015F
:10334000CD0120E030E040EA50E40E94C5031816A9
:103350002CF40E9449120E94191206C00E944912C0
:103360000E9425120E946D120E940813813019F4E8
:103370000E94791206C00E940813823011F40E9444
:1033800061120F900F900F900F900F90CF91DF91DF
:103390000895DF93CF93CDB7DEB7AD970FB6F8940E
:1033A000DEBF0FBECDBF80E090E0A0E0B0E08A833A
:1033B0009B83AC83BD83198219822BC084E00E9459
:1033C000E6078DE30E948F0880916C018230E1F75F
:1033D0008981882F90E040916E0150916F0160913A
:1033E0007001709171019C01220F331F220F331F56
:1033F000CE010196820F931FFC01359640835183C5
:10340000628373830E949E0810926C0189818F5F92
:10341000898389818A3090F2198221C08981882F1D
:1034200090E09C01220F331F220F331FCE01019623
:10343000820F931FFC013596208131814281538197
:103440006A817B818C819D810E94F201DC01CB012C
:103450008A839B83AC83BD8389818F5F89838981C4
:103460008A30E0F26A817B818C819D8120E030E0AE
:1034700040E251E40E941903DC01CB018A839B8363
:10348000AC83BD838A819B81AC81BD81BC01CD01B0
:10349000AD960FB6F894DEBF0FBECDBFCF91DF91D2
:1034A0000895DF93CF930F92CDB7DEB7198281E1F4
:1034B00093E09E012F5F3F4FB9010E9467139981EE
:1034C00080916801981729F480916D018F5F809336
:1034D0006D0180916D018630C0F485E00E94E607A1
:1034E0008CE00E948F082091680181E193E0622FB7
:1034F0000E9442130E948C1A80916C018430E1F783
:103500000E949E0810926C01D2CF81E080936A01E4
:103510000F90CF91DF910895DF93CF93CDB7DEB7B2
:1035200080917201813049F480E00E94F81381E0BB
:103530000E94F8131092720117C080916801282F21
:1035400030E040E050E080E060E00E94B3178091FE
:103550006801282F30E040E050E081E061E00E9407
:10356000B31781E080937201CF91DF9108951F928C
:103570000F920FB60F9211248F93DF93CF93CDB795
:10358000DEB780916A01823021F082E080936A0187
:103590000DC0809168018B3420F08BE4809368012A
:1035A00005C0809168018B5F8093680110926C0167
:1035B00010926D01CF91DF918F910F900FBE0F9000
:1035C0001F9018951F920F920FB60F9211248F9390
:1035D000DF93CF93CDB7DEB780916A01823021F0BF
:1035E00082E080936A010DC080916801843220F4EA
:1035F00083E28093680105C08091680185508093C3
:10360000680110926C0110926D01CF91DF918F9142
:103610000F900FBE0F901F9018951F920F920FB62C
:103620000F9211248F93DF93CF93CDB7DEB78091A4
:103630006A01882321F481E080936A0106C08091A9
:103640006A01813011F410926A01CF91DF918F915C
:103650000F900FBE0F901F9018951F920F920FB6EC
:103660000F9211242F933F934F935F936F937F9308
:103670008F939F93AF93BF93EF93FF93DF93CF937A
:10368000CDB7DEB780916C018F5F80936C01809124
:103690006A018130C9F480916C018230A9F487E01D
:1036A0000E946511882F90E0A0E0B0E0BC01CD0140
:1036B0000E940705DC01CB0180936E0190936F019E
:1036C000A0937001B0937101CF91DF91FF91EF91C1
:1036D000BF91AF919F918F917F916F915F914F912A
:1036E0003F912F910F900FBE0F901F901895DF9371
:1036F000CF93CDB7DEB70E940A180E94CB1880E0A6
:1037000090E0CF91DF910895991B79E004C0991F53
:10371000961708F0961B881F7A95C9F7809508952B
:10372000A1E21A2EAA1BBB1BFD010DC0AA1FBB1FC5
:10373000EE1FFF1FA217B307E407F50720F0A21B37
:10374000B30BE40BF50B661F771F881F991F1A94A4
:1037500069F760957095809590959B01AC01BD01CE
:10376000CF0108952F923F924F925F926F927F9276
:103770008F929F92AF92BF92CF92DF92EF92FF9281
:103780000F931F93CF93DF93CDB7DEB7CA1BDB0B2D
:103790000FB6F894DEBF0FBECDBF09942A883988D2
:1037A00048885F846E847D848C849B84AA84B984D9
:1037B000C884DF80EE80FD800C811B81AA81B981E5
:1037C000CE0FD11D0FB6F894DEBF0FBECDBFED01F9
:1037D00008953BD080F09F3740F491110EF44DC016
:1037E00060E070E080E89FE3089526F01B16611DFD
:1037F000711D811D01C01BC0882371F4772321F046
:103800009850872B762F07C0662311F499270DC097
:103810009051862B70E060E02AF09A95660F771F32
:10382000881FDAF7880F9695879597F908959F3F37
:1038300031F0915020F4879577956795B795880F6B
:10384000911D9695879597F9089525D0A0F0BEE72C
:10385000B91788F4BB279F3860F41616B11D672F7F
:10386000782F8827985FF7CF869577956795B11D54
:1038700093959639C8F30895E894BB276627772770
:10388000CB0197F9089557FD9058440F551F59F0F3
:103890005F3F71F04795880F97FB991F61F09F3F3D
:1038A00079F087950895121613061406551FF2CF66
:1038B0004695F1DF08C0161617061806991FF1CFB6
:0E38C00086957105610508940895F894FFCF70
:1038CE0000000000000000000001020203030303D9
:1038DE000404040404040404050505050505050592
:1038EE000505050505050505060606060606060672
:1038FE00060606060606060606060606060606065A
:10390E000606060606060606070707070707070741
:10391E000707070707070707070707070707070729
:10392E000707070707070707070707070707070719
:10393E000707070707070707070707070707070709
:10394E0007070707070707070808080808080808F1
:10395E0008080808080808080808080808080808D9
:10396E0008080808080808080808080808080808C9
:10397E0008080808080808080808080808080808B9
:10398E0008080808080808080808080808080808A9
:10399E000808080808080808080808080808080899
:1039AE000808080808080808080808080808080889
:1039BE000808080808080808080808080808080879
:0A39CE0008080808080808083C0073
:00000001FF
